:100000000C942A000C9447000C9447000C94470071
:100010000C9447000C9447000C9447000C94470044
:100020000C9447000C9447000C9447000C94470034
:100030000C9447000C9477000C9447000C94A0009B
:100040000C9447000C9447000C9447000C94470014
:100050000C94470011241FBECFE5D8E0DEBFCDBF12
:1000600011E0A0E6B0E0ECEAF8E002C005900D92E5
:10007000AC32B107D9F711E0ACE2B1E001C01D929A
:10008000AD33B107E1F70E94F5020C9454040C94CF
:1000900000003E9A86B1876086B9379A089597B175
:1000A0008F70907F892B87B9369A3699FECF24B10D
:1000B00035B1C90108955998529886E880BD10BCA1
:1000C00083E389B9549A539A0895579A0895579893
:1000D0000895569A08955698089590932D01809307
:1000E0002C01089590932F0180932E0108951F9263
:1000F0000F920FB60F9211242F933F934F935F935C
:100100006F937F938F939F93AF93BF93EF93FF93DF
:10011000E0912C01F0912D01309709F00995FF91A4
:10012000EF91BF91AF919F918F917F916F915F916F
:100130004F913F912F910F900FBE0F901F901895E8
:100140001F920F920FB60F9211242F933F934F934C
:100150005F936F937F938F939F93AF93BF93EF932F
:10016000FF93E0912E01F0912F01309709F009954E
:10017000FF91EF91BF91AF919F918F917F916F917F
:100180005F914F913F912F910F900FBE0F901F9055
:1001900018958CB908958CB108955D9BFECF8CB9EC
:1001A00008955F9BFECF8CB1089520E004C05D9B55
:1001B000FECFECB92F5FFC01E20FF11DE081EE23D1
:1001C000B1F70895FC015F9902C080E008958CB1F9
:1001D000808381E00895A59AAD980895E199FECFB6
:1001E0009FBB8EBB6DBBE29AE19A0895E199FECF69
:1001F0009FBB8EBBE09A8DB3089587B38F7887BB82
:1002000081B38C6181BBC49AC59AC69A929A939A1B
:10021000949A089580E29EE4FC013197F1F7929858
:10022000939A949A0197F1F7B49902C081E309C0B7
:10023000B59902C084E305C0B69902C087E301C046
:1002400080E0929A9398949AE0E2FEE43197F1F775
:10025000B49902C082E306C0B59902C085E302C02A
:10026000B69B88E3929A939A9498E0E2FEE43197E1
:10027000F1F7B49902C083E30895B59902C086E30B
:100280000895B69B89E30895282FD998A89887FFE9
:1002900002C0DE9A01C0DE988BB3822F82958695CC
:1002A0008695837080FF02C0DD9A01C0DD988BB314
:1002B000822F82958695877080FF02C0DC9A01C0EC
:1002C000DC988BB3822F82958F7080FF02C0DB9AFF
:1002D00001C0DB988BB3DA9A85E38A95F1F7DA9857
:1002E00080E49FE10197F1F7822F869586958695A8
:1002F00080FF02C0DE9A01C0DE988BB3822F869504
:10030000869580FF02C0DD9A01C0DD988BB3822FF5
:10031000869580FF02C0DC9A01C0DC988BB320FF79
:1003200002C0DB9A01C0DB988BB3DA9A85E38A9529
:10033000F1F7DA9880E49FE10197F1F70895D29AF6
:10034000D59AD69AD19AD39AD49A88EC90E020E99B
:1003500031E0F9013197F1F70197D9F783E30E9472
:10036000440182E30E94440188E20E9444018CE03F
:100370000E94440186E00E94440180E80E944401FA
:1003800081E00E9444010895282FD99AA89887FFF8
:1003900002C0DE9A01C0DE988BB3822F82958695CB
:1003A0008695837080FF02C0DD9A01C0DD988BB313
:1003B000822F82958695877080FF02C0DC9A01C0EB
:1003C000DC988BB3822F82958F7080FF02C0DB9AFE
:1003D00001C0DB988BB3DA9A85E38A95F1F7DA9856
:1003E00080E49FE10197F1F7822F869586958695A7
:1003F00080FF02C0DE9A01C0DE988BB3822F869503
:10040000869580FF02C0DD9A01C0DD988BB3822FF4
:10041000869580FF02C0DC9A01C0DC988BB320FF78
:1004200002C0DB9A01C0DB988BB3DA9A85E38A9528
:10043000F1F7DA9880E49FE10197F1F70895CF93FF
:10044000DF93EC0103C021960E94C40188818823B8
:10045000D1F7DF91CF910895AF92BF92CF92DF9203
:10046000EF92FF920F931F93DF93CF93CDB7DEB739
:100470002C970FB6F894DEBF0FBECDBF6B017C0189
:10048000611571058105910521F480E30E94C40185
:1004900033C010E05E010894A11CB11CC501810F9E
:1004A000911D9C878B87C701B6012AE030E040E0B0
:1004B00050E00E942904605DEB85FC856083C701E4
:1004C000B6012AE030E040E050E00E942904C90172
:1004D000DA016C017D011F5FC114D104E104F10454
:1004E000E9F6012F07C0FE01E00FF11D80810E9497
:1004F000C40101500023B9F72C960FB6F894DEBF63
:100500000FBECDBFCF91DF911F910F91FF90EF9064
:10051000DF90CF90BF90AF900895813019F0823076
:1005200051F405C0862F81580E9444010895862FFA
:1005300081540E9444010895EF92FF920F931F93FC
:100540007B018C01842F622F0E948D02C801B701AC
:100550000E942C0280E20E94C4011F910F91FF9023
:10056000EF9008950F931F938C01862F642F0E94A4
:100570008D02C8010E941F021F910F9108951F93C1
:10058000182F862F642F0E948D02812F0E94C40194
:100590001F910895DF92EF92FF920F931F93CF93D5
:1005A000DF938C01E62ED42EF22E822F880F880F37
:1005B000880F805C0E944401C0E0D0E0F801EC0F9D
:1005C000FD1F80810E94C4012196C830D105B1F77A
:1005D0008F2D6E2D4D2D0E94BF02DF91CF911F9167
:1005E0000F91FF90EF90DF900895CF93DF930E94DB
:1005F0009F0181E00E94440180E690E061E041E0DB
:100600000E94B20280E395E720E931E0F9013197D9
:10061000F1F70197D9F781E00E9444010E94EB00B5
:100620000E9449000E94FD00A498B89AC098B99A07
:10063000C198BA9AC298C0E9D1E0A0C08091E10007
:100640009091E200181619060CF08DC081E790E039
:1006500061E041E00E94B2028CE790E062E042E09B
:100660000E94B2026091E1007091E200882777FD5C
:100670008095982F42E028E00E949C020E940A0187
:1006800080933001882319F1409132015091330158
:10069000FA01E85CFE4F8083455F61E00E94BF0283
:1006A00088E893E1FE013197F1F70197D9F740917E
:1006B0003201455F8AE261E00E94BF02809132010F
:1006C0009091330101969093330180933201809190
:1006D000320190913301049709F0B8CF10923C0198
:1006E00088E391E06BED70E00E944B04009721F4E9
:1006F00081E08093310102C010923101809131017B
:10070000882389F084E890E062E041E00E94B20230
:1007100080E29EE4FE013197F1F70197D9F781E07D
:100720000E94440130C01092310185E990E062E0FE
:1007300041E00E94B20280E29EE4FE013197F1F7AF
:100740000197D9F781E00E9444018091E1009091E6
:10075000E20001979093E2008093E1001092330150
:10076000109232010BC0AD9A81E00E94440184EAEC
:1007700090E061E041E00E94B202F9CF8091310146
:10078000882309F45BCF87E00E944F0090933701E4
:100790008093360180E00E944F0090933501809352
:1007A000340182EB90E061E041E00E94B20287EB0D
:1007B00090E061E049E00E94B2028CEB90E062E0E0
:1007C00041E00E94B202609136017091370180E0F1
:1007D00090E041E025E00E949C026091340170911C
:1007E000350180E090E041E02DE00E949C022091E4
:1007F0003601309137012135310538F480913401CB
:1008000090913501893C910578F0AD9A21353105FB
:1008100010F0C19A0CC08091340190913501893C4F
:10082000910528F0C09A03C0AD98C098C1989C9BD0
:1008300008C081EC90E062E045E00E94B202C29AFA
:100840009DCF80ED90E062E045E00E94B202C29848
:1008500095CFA1E21A2EAA1BBB1BFD010DC0AA1F3A
:10086000BB1FEE1FFF1FA217B307E407F50720F019
:10087000A21BB30BE40BF50B661F771F881F991F94
:100880001A9469F760957095809590959B01AC01DD
:10089000BD01CF010895FB01DC018D91019080190C
:0C08A0000110D9F3990B0895F894FFCFD4
:1008AC002020536D61727420486F6D65203A2920A9
:1008BC0000456E7465722050494E3A005472696559
:1008CC00733A2000436F72726563742050617373C6
:1008DC00776F72640057726F6E6720506173737715
:1008EC006F72640053797374656D204C6F636B6524
:1008FC0064004D51323A004D51353A005049523A4C
:10090C00002020204D6F74696F6E2E202020200057
:10091C004E6F204D6F74696F6E2E00313233340080
:10092C00C8030067003300190010000C000800CF4A
:10093C000067003300220019001000A001CF0067EF
:10094C0000440033002200CF00670033002200195E
:10095C00001000A001CF00670044003300220040CB
:0C096C0003A001CF008A006700440000D7
:00000001FF
